:100000000C9435000C945D000C945D000C945D0024
:100010000C945D000C945D000C945D000C945D00EC
:100020000C945D000C945D000C945D000C945D00DC
:100030000C945D000C945D000C945D000C945D00CC
:100040000C94F5010C945D000C94C3010C949D017B
:100050000C945D000C945D000C945D000C945D00AC
:100060000C945D000C945D00590311241FBECFEF6A
:10007000D8E0DEBFCDBF11E0A0E0B1E0E0E6F7E000
:1000800002C005900D92A231B107D9F721E0A2E19B
:10009000B1E001C01D92A83BB207E1F710E0C5E353
:1000A000D0E004C02197FE010E94A803C433D10709
:1000B000C9F70E943F020C94AE030C9400002FB7C6
:1000C000F894609113017091140180911501909141
:1000D00016012FBF0895AF92BF92CF92DF92EF9299
:1000E000FF920F931F93CF93DF936C017B018B01E2
:1000F000040F151FEB015E01AE18BF08C017D10732
:1001000059F06991D601ED91FC910190F081E02DBB
:10011000C6010995892B79F7C501DF91CF911F9110
:100120000F91FF90EF90DF90CF90BF90AF90089528
:10013000FC01538D448D252F30E0842F90E0821BED
:10014000930B541710F0CF96089501970895FC0172
:10015000918D828D981761F0A28DAE0FBF2FB11DCA
:100160005D968C91928D9F5F9F73928F90E0089522
:100170008FEF9FEF0895FC01918D828D981731F0DC
:10018000828DE80FF11D858D90E008958FEF9FEF30
:100190000895FC01918D228D892F90E0805C9F4F06
:1001A000821B91098F73992708958BE191E00E943A
:1001B000C90021E0892B09F420E0822F089580E016
:1001C00090E0892B29F00E94D50081110C94000049
:1001D0000895FC01A48DA80FB92FB11DA35ABF4FDC
:1001E0002C91848D90E001968F739927848FA68936
:1001F000B7892C93A089B1898C91837080648C938A
:10020000938D848D981306C00288F389E02D808138
:100210008F7D80830895EF92FF920F931F93CF936A
:10022000DF93EC0181E0888F9B8D8C8D98131AC031
:10023000E889F989808185FF15C09FB7F894EE8918
:10024000FF896083E889F989808183708064808375
:100250009FBF81E090E0DF91CF911F910F91FF90C0
:10026000EF900895F62E0B8D10E00F5F1F4F0F7368
:100270001127E02E8C8D8E110CC00FB607FCFACF23
:10028000E889F989808185FFF5CFCE010E94E900D8
:10029000F1CFEB8DEC0FFD2FF11DE35AFF4FF082F4
:1002A0009FB7F8940B8FEA89FB8980818062CFCF5A
:1002B000CF93DF93EC01888D8823B9F0AA89BB899D
:1002C000E889F9898C9185FD03C0808186FD0DC088
:1002D0000FB607FCF7CF8C9185FFF2CF808185FFA9
:1002E000EDCFCE010E94E900E9CFDF91CF910895D3
:1002F0003FB7F8948091170190911801A0911901CE
:10030000B0911A0126B5A89B05C02F3F19F00196A0
:10031000A11DB11D3FBFBA2FA92F982F8827BC015F
:10032000CD01620F711D811D911D42E0660F771F87
:10033000881F991F4A95D1F708951F920F920FB603
:100340000F9211242F933F934F935F936F937F935B
:100350008F939F93AF93BF93EF93FF938BE191E0C4
:100360000E94E900FF91EF91BF91AF919F918F9112
:100370007F916F915F914F913F912F910F900FBEA1
:100380000F901F9018951F920F920FB60F92112485
:100390002F938F939F93EF93FF93E0912B01F09115
:1003A0002C018081E0913101F091320182FD1BC06E
:1003B0009081809134018F5F8F7320913501821776
:1003C00041F0E0913401F0E0E55EFE4F958F8093BF
:1003D0003401FF91EF919F918F912F910F900FBE5C
:1003E0000F901F9018958081F4CF1F920F920FB637
:1003F0000F9211242F933F938F939F93AF93BF93AB
:100400008091130190911401A0911501B0911601F2
:100410003091120123E0230F2D3758F50196A11DCD
:10042000B11D209312018093130190931401A093A6
:100430001501B09316018091170190911801A091B8
:100440001901B0911A010196A11DB11D80931701E8
:1004500090931801A0931901B0931A01BF91AF9125
:100460009F918F913F912F910F900FBE0F901F90F2
:10047000189526E8230F0296A11DB11DD2CFCF9368
:10048000DF93CDB7DEB7A5970FB6F894DEBF0FBEEA
:10049000CDBF789484B5826084BD84B5816084BD0D
:1004A00085B5826085BD85B5816085BD80916E0012
:1004B000816080936E001092810080918100826043
:1004C0008093810080918100816080938100809180
:1004D00080008160809380008091B100846080936F
:1004E000B1008091B00081608093B00080917A006B
:1004F000846080937A0080917A00826080937A0091
:1005000080917A00816080937A0080917A0080687F
:1005100080937A001092C100E0912B01F0912C01A0
:1005200082E08083E0912701F09128011082E09120
:100530002901F0912A018FEC808310923301E09120
:100540002F01F091300186E08083E0912D01F09140
:100550002E01808180618083E0912D01F0912E0138
:10056000808188608083E0912D01F0912E0180814F
:1005700080688083E0912D01F0912E0180818F7D34
:1005800080838FE590E06C01990FEE08FF088827C3
:100590009927DC018C199D09AE09BF098AA39BA389
:1005A000ACA3BDA390E0292E90E0392E8BE191E021
:1005B0000E94C900892B09F449C0F7FE53C06DE2BF
:1005C0008BE191E00E940B012AA13BA14CA15DA10E
:1005D00019A28E010F5D1F4FCA01B9012AE030E058
:1005E00040E050E00E948603605DD8016E938D016B
:1005F000211531054105510579F7FD01AB2B09F0B6
:100600004BC00E9478012B013C0188EE882E83E0CC
:10061000982EA12CB12C0E947801641975098609C5
:100620009709683E734081059105A8F3F1E08F1AA0
:100630009108A108B10828EE420E23E0521E611C69
:10064000711C81149104A104B10429F7211431040F
:1006500009F4ACCF0E94D500882309F4A7CF0E94EB
:100660000000A4CFA701960119A28E010F5D1F4FB4
:10067000CA01B9012AE030E040E050E00E94860360
:10068000605DF80162938F01211531054105510527
:1006900079F7309709F4B5CF01900020E9F7319749
:1006A000AF01401B510BB8018BE191E00E946B0040
:1006B000A8CFEBE1F1E01382128288EE93E0A0E094
:1006C000B0E084839583A683B78384E091E091832F
:1006D000808385EC90E09587848784EC90E0978711
:1006E000868780EC90E0918B808B81EC90E0938BFF
:1006F000828B82EC90E0958B848B86EC90E0978BDC
:10070000868B118E128E138E148E0895A1E21A2EEE
:10071000AA1BBB1BFD010DC0AA1FBB1FEE1FFF1FA5
:10072000A217B307E407F50720F0A21BB30BE40BF5
:10073000F50B661F771F881F991F1A9469F760953C
:100740007095809590959B01AC01BD01CF010895F6
:10075000EE0FFF1F0590F491E02D0994F894FFCF60
:10076000000000000B016B0098005801C900A700B1
:02077000BB00CC
:00000001FF
